:020000040800F2
:1000000000620020E5020008936100080B5F000811
:1000100091610008493E00084169000800000000A5
:10002000000000000000000000000000C1630008A4
:10003000FD3E00080000000095610008C363000851
:10004000FF020008FF020008FF020008FF0200088C
:10005000FF020008FF020008FF020008FF0200087C
:10006000FF020008FF020008FF020008FF0200086C
:100070004D3E0008FF020008FF020008FF020008D2
:10008000FF020008FF020008FF020008FF0200084C
:10009000FF020008FF020008FF020008FF0200083C
:1000A000FF020008FF020008FF020008FF0200082C
:1000B000FF020008FF020008FF020008FF0200081C
:1000C000FF020008FF020008FF020008FF0200080C
:1000D000FF020008FF020008FF020008B5680008E0
:1000E000FF020008FF020008FF020008FF020008EC
:1000F000FF020008FF020008FF020008FF020008DC
:10010000FF020008FF020008FF020008FF020008CB
:10011000FF020008FF020008FF020008FF020008BB
:10012000FF020008FF020008FF020008FF020008AB
:10013000FF020008FF020008FF020008FF0200089B
:10014000FF020008FF020008FF020008FF0200088B
:10015000FF020008FF020008FF020008FF0200087B
:10016000FF020008FF020008FF020008FF0200086B
:10017000FF020008FF020008FF0200080000000064
:10018000FF020008FF02000800F002F800F096F8F5
:100190000AA090E8000C82448344AAF10107DA45E2
:1001A00001D100F08BF8AFF2090EBAE80F0013F09E
:1001B000010F18BFFB1A43F0010318477404010034
:1001C00094040100103A24BF78C878C1FAD85207C5
:1001D00024BF30C830C144BF04680C6070470000C1
:1001E0000023002400250026103A28BF78C1FBD840
:1001F000520728BF30C148BF0B6070476E2900F01E
:100200009A86702900F0258266290DF014816529EF
:100210000DF0118167290DF00E8161290DF00D811E
:1002200003681B0A28BF41F08001692900F096810C
:10023000642900F09381752900F090816F2900F006
:100240008887782900F0F181E92900F02387E429E3
:1002500000F02087F52900F01D87EF2900F0858741
:10026000F82900F0F0810368DB0928BF41F0800124
:10027000632900F0A486732900F0A986E32901F020
:100280006784F32901F06C84002070471FB50DF0DE
:10029000CDF89DE8030000F085FD01F04FF8040063
:1002A000002000210DF096F8401C60600020002125
:1002B0000DF0A6F8E0601FBD10B510BD01F053FEB3
:1002C0001146FFF7E3FF08F0DDFF01F023FF03B461
:1002D000FFF7F2FF03BC00F037FD000080F3088851
:1002E000704700000948804709480047FEE7FEE7DD
:1002F000FEE7FEE7FEE7FEE7FEE7FEE7FEE7FEE7D6
:1003000004480549054A064B704700005D64000833
:1003100089010008004200200062002000520020F5
:100320000052002070B5A0FB0140B4F1805170F183
:10033000000024BF002070BD204600F062FD0500D3
:100340001CBF214600F073FC284670BD70B5044602
:10035000051F00F007FD0068002C14BF446870BD45
:10036000002C18BFAC423CBF20466468F8D301683B
:100370000A18AA4218BF456003D12A6805461144ED
:10038000016028684119A1421CBF6C6070BD6168A2
:10039000696021680844286070BD53EA020C00F0CF
:1003A00069802DE9F04B4FF00006002B1FBFB3FA18
:1003B00083F503FA05F424FA05F65E4012BF1643EE
:1003C000B2FA82F502FA05F4C5F120051EBF22FA41
:1003D00005FC44EA0C04203556EA044C4FEA144468
:1003E00018BF641C4FF000084FF00009904271EBF9
:1003F000030C39D3002919BFB1FA81F701FA07F6C6
:10040000B0FA80F700FA07F6C7F120071EBF20FAFE
:1004100007FC46EA0C062037B6FBF4FCA7EB050701
:10042000103F07F01F0BCBF120060CFA0BFB2CFA48
:1004300006F644BFB3460026202FA4BF5E464FF009
:10044000000B5BEA060C08BF4FF0010B19EB0B0920
:10045000ABFB027C48EB0608C01B06FB02CC0BFB87
:1004600003CC71EB0C01C1E70B46024641464846FE
:10047000BDE8F08B13B54FF000004FF00001AFF373
:100480000080BDE81C4070477CB51D4616460C0038
:10049000009001D02044401E074B7B442A46694609
:1004A0000190304600F061FD05461CB10020694610
:1004B00000F06EFD28467CBDFD0A000070B50446C4
:1004C00085690068C10601D5302600E02026C007F6
:1004D00007D070BDD4E9012130469047206A401C06
:1004E00020626D1EF6D570BD70B504468569007832
:1004F000C00707D170BDD4E9012120209047206AB0
:10050000401C20626D1EF6D570BD70B50C460546C8
:10051000012A05D02878800600D5EA69002302E088
:10052000012305E05B1C934202D2E05C0028F9D174
:10053000A869E618C01AA861286A184428622846E3
:10054000FFF7BCFF04E0D5E9012114F8010B904747
:10055000B442F8D32846FFF7C7FF70BD2DE9F0413C
:100560000646002410687529314616A510D000F003
:1005700077FC002802DA404213A507E031688A07B9
:1005800001D512A502E0490704D511A5012401E017
:1005900000F06FFC00210A2206F1240709E0B0FBFD
:1005A000F2FCB0FBF2F302FB1C003030785418462A
:1005B000491C0028F3D123462A463046BDE8F041C5
:1005C00000F060BC000000002D0000002B000000C7
:1005D00020000000F0B40D460188090502D5214C29
:1005E0007C4402E01F4C7C440E34002100F12406C0
:1005F00008E002F00F071209E75D42EA03721B09E7
:100600007754491C52EA0307F3D1027800231207FA
:1006100004D5702D06D009B1022311342246F0BC56
:1006200000F030BC01231034F8E770B504460D46E5
:100630002146106800F01DFC024629462046BDE810
:1006400070400023C6E7D21D22F00703D3E9002340
:10065000C0E70368126843F0200303600823C36106
:100660000023B7E734F700002DE9F05F8946044620
:100670004FF0000ADFF874B1FB44C0F820A0204618
:10068000E1688847002874D0252806D0D4E90121E4
:100690009047206A401C2062F1E700265F46204612
:1006A000E16888472028054607DB312D05D27819F7
:1006B00010F8200C08B10643F1E7B00701D526F089
:1006C0000406C4F81CA00027C4F818A02A2D09D0DD
:1006D000284606F0FAFB38B304EB8708303DC8F82B
:1006E000185019E059F8041B204604EB8702916169
:1006F000E1688847012F054618D1E069002820DA13
:1007000026F020061DE0D8F8180000EB800005EB6D
:1007100040003038C8F818002046E1688847054690
:1007200006F0D3FB0028EED1012F0AD02E2D08D1E0
:100730002046E16888477F1C0546022F46F02006C8
:10074000C4DBA069002803DA404246F00106A0613C
:10075000F00701D026F010066C2D0BD0682D09D0C3
:100760004C2D39D06A2D35D0742D35D07A2D33D01B
:1007700016E038E0E1682F4620468847B842054633
:1007800009D16C2F26D04FF48060E16806432046E3
:100790008847054604E06C2F1AD04FF4807006435A
:1007A0000DB3A5F14100192802D8203546F40066A2
:1007B0004A462946204626604E46FFF71FFD80B177
:1007C00001280BD0F61D26F0070000F1080956E7B6
:1007D0004020E4E78020D8E70020D6E706F10409AE
:1007E0004DE7284652E7206ABDE8F09FC4F60000B6
:1007F0000FB400B58DB010A9099000910B904FF087
:10080000FF300A9000200C90064878440690064875
:1008100078446A4607900F9909A800F0C5FC0DB00E
:100820005DF814FBBB090000D30900002DE9FF5F50
:100830001D464FF0FF3B91464FF000085F46D5E95B
:100840000146A96901987F1C8847296A8246884722
:100850000028F6D1BAF1FF3F0CD0002E24F4C0647A
:1008600019DD600614D5BAF12B0F09D0BAF12D0F9E
:100870000ED103E0584604B0BDE8F09F44F4806414
:10088000A96901987F1C8847761E8246002E02DDEA
:10089000BAF1300F03D0B9F1000F26D032E0A969C8
:1008A000761E01987F1C44F400748847002E82460F
:1008B00005DDBAF1780F06D0BAF1580F03D0B9F1BF
:1008C000000F10D01EE0B9F1000F02D0B9F1100FE7
:1008D00018D1A969761E01987F1C24F400748847FA
:1008E0008246102002E0082000E00A20814609E04C
:1008F000A96908FB0908761E01987F1C44F400745E
:1009000088478246002E05DD4946504600F038FCF7
:100910000028EDDAE96901988847A00502D46FF054
:100920000100A8E7E00725D1600613D5600502D5D0
:10093000C8F1000000E0404629680A1D2A600968E5
:10094000220501D5087015E0220701D5088011E0C5
:1009500008600FE02868011D29600068210502D5A4
:1009600080F8008006E0210702D5A0F8008001E0B1
:10097000C0F8008038467EE72DE9F05F93460F46C9
:1009800080460446002600F0F1F9D0F80090824637
:1009900014F8015B2DB100F0DDF90068405DC0077F
:1009A000F6D12B2D02D02D2D1AD0641E0021CAF8AD
:1009B00000105A463946204600F026FC014627B171
:1009C0003868A04201D1C7F80080DAF80000022898
:1009D00009D0CAF80090700505D54842BDE8F09FDF
:1009E00046F48066E2E70846F8E710B5002000F01C
:1009F0005AFCFFF761FCBDE81040012000F0A4B9EB
:100A000040EA010310B59B070FD1042A0DD310C88B
:100A100008C9121F9C42F8D020BA19BA884201D9DD
:100A2000012010BD4FF0FF3010BD1AB1D30703D025
:100A3000521C07E0002010BD10F8013B11F8014BDB
:100A40001B1B07D110F8013B11F8014B1B1B01D1F7
:100A5000921EF1D1184610BD10B5431C02E010F8EB
:100A6000011B71B18107FAD14FF0013202C88C1A13
:100A70008C4314EAC211F9D0C01A0A0603D0C01E72
:100A800010BDC01A10BD0A0401D0801E10BD09029D
:100A9000FCD0401E10BD032A40F2308010F0030C41
:100AA00000F0158011F8013BBCF1020F624498BFC1
:100AB00011F801CB00F8013B38BF11F8013BA2F15E
:100AC000040298BF00F801CB38BF00F8013B11F0D9
:100AD000030300F06780083AC0F0088051F8043B37
:100AE000083A51F804CBA0E80810F5E7121D5CBFE6
:100AF00051F8043B40F8043BAFF30080D20724BF19
:100B000011F8013B11F801CB48BF11F8012B24BFAC
:100B100000F8013B00F801CB48BF00F8012B7047FB
:100B2000431A28BF9A427FF6B6AF032A10441144F5
:100B300040F2268010F0030F1EBF11F8013D521E37
:100B400000F8013D10F0030F7FF4F6AF11F003033E
:100B500000F0C383083AC0F00B8051F8043D083A16
:100B600051F804CD40F8043D40F804CDFFF7F3BF41
:100B7000121D5CBF51F8043D40F8043DAFF3008006
:100B8000D20724BF11F8013D11F801CD48BF11F87B
:100B9000012C24BF00F8013D00F801CD48BF00F84A
:100BA000012C704710B5203AC0F00B80B1E8185006
:100BB000203AA0E81850B1E81850A0E81850BFF447
:100BC000F5AF5FEA027C24BFB1E81850A0E81850E6
:100BD00044BF18C918C0BDE810405FEA827C24BF3A
:100BE00051F8043B40F8043B08BF7047D20728BFC8
:100BF00031F8023B48BF11F8012B28BF20F8023B17
:100C000048BF00F8012B704701F0FF03114601B502
:100C100043EA032242EA024200F00BF801BD02F06F
:100C2000FF0343EA032242EA024200F002B84FF017
:100C300000020429C0F0128010F0030C00F01B80A9
:100C4000CCF1040CBCF1020F18BF00F8012BA8BFB7
:100C500020F8022BA1EB0C0100F00DB85FEAC17C7B
:100C600024BF00F8012B00F8012B48BF00F8012B2E
:100C700070474FF0000200B513469446964620395F
:100C800022BFA0E80C50A0E80C50B1F12001BFF445
:100C9000F7AF090728BFA0E80C5048BF0CC05DF8AB
:100CA00004EB890028BF40F8042B08BF704748BFF9
:100CB00020F8022B11F0804F18BF00F8012B70476D
:100CC0004FF0013C50F8042B51F8043B9A4221D1DB
:100CD000A2EB0C03934313EACC1317D150F8042B67
:100CE00051F8043B9A4215D1A2EB0C03934313EA4B
:100CF000CC130BD150F8042B51F8043B9A4209D184
:100D0000A2EB0C03934313EACC13DBD04FF00000AB
:100D1000704700BFD01A01BAB1FA81F101F0180191
:100D200022FA01F0CB40C1F12001DBB2C0B2C01AFF
:100D30002CFA01F3D11A914311EAC311E6D170479D
:100D4000704770477047000001491820ABBEFEE7AE
:100D50002600020010B500F0F1FA001D10BD00BF22
:100D600075C6000000487047A44100200048704745
:100D70009C410020704770477047704738B5044663
:100D80000A4600206946AFF30080002808BF38BD3E
:100D900002460099204600F0DCFA012038BD01200F
:100DA00001F0DAB8F8B5AFF30080054600200C4634
:100DB000102000BF0646A819A0420DD93246694648
:100DC0000020AFF30080070008BF01F0C5F80098CD
:100DD000A04218BF0546C419FFF7C4FF05600746C7
:100DE000F01D20F007004619284600F0ABFAB44287
:100DF00008BFF8BDA21B31463868BDE8F84000F0D6
:100E0000A8BA70B50646FFF7ADFF056806F10B00FE
:100E100020F00704B4429CBF002070BD2B466A68D6
:100E2000BAB11068A04210D304F1080188423CBF57
:100E30005068586007D35168101941601168091B48
:100E4000016058601460101D70BD13465268002A7E
:100E5000E7D121462846FFF791FF0028DED170BD7B
:100E600009684A0501D540B27047C905FCD500B2F2
:100E7000704709684A0501D5C0B27047C905FCD55D
:100E800080B270472DE9F0470D46994692460446D8
:100E900000F124080168880604D5E06921F01001FA
:100EA000216000E00120A84201DD471B00E000278F
:100EB000A1697A1902EB0900081AA0612078C0061E
:100EC00002D42046FFF7FAFA002608E0D4E901210F
:100ED0001AF806009047206A401C761C20624E4596
:100EE000F4DB2078C0060AD52046FFF7E7FA06E0D3
:100EF000D4E9012130209047206A401C2062381E2E
:100F0000A7F10107F4DC07E0D4E9012118F8050096
:100F10009047206A401C2062281EA5F10105F3DCE1
:100F20002046FFF7E1FA2078000602D50220BDE84E
:100F3000F0870120FBE711680268006A530501D5BC
:100F400008700AE0D30501D5088006E0130603D532
:100F5000C217C1E9000200E00860012070470000EC
:100F600001694A1C02610878704700B58FB0CDE96D
:100F700001310021059105497944CDE9031011465D
:100F80006846FFF771FB0FB000BD0000E5FFFFFFF3
:100F90000A6802F8010B0A607047D1E900239A42FF
:100FA00002D2531C0B601070704710B5436913B127
:100FB000AFF3008001E0FFF7A8FA012010BD12781E
:100FC00000F124010A7000224A700122EDE7116845
:100FD0004FF0FF32E9E700002DE9FF5F15468A4632
:100FE0000446DFF8AC80F8440027D8E900103E46FC
:100FF000CDE9001010E03AF816106A4602A800F099
:101000006DFF411C07D02178890603D5E2693918A4
:1010100091420DD80744761C2078800602D5E069FD
:10102000B84205DDAE42E6DB3AF816000028E2D110
:10103000A069C01BA0612046FFF740FAD8E9001064
:10104000CDE90010002017E03AF818106A4602A80F
:1010500000F044FFB0F1FF3F81460BD000250DF1B9
:10106000080B05E0D4E901211BF8050090476D1C31
:101070004D45F7D308F10100B0428046E4DB206A19
:10108000384420622046FFF72FFABDE8FF9F00009A
:101090006AED00002DE9F0418046D21D22F00702E2
:1010A0000025D2E90002F52915A614D0011E72F11F
:1010B000000106DA0023D0EB030063EB020211A665
:1010C00008E0D8F800108B0701D50FA602E0490709
:1010D00001D50EA601251146002408F1240704E0DD
:1010E00000F051F930323A55641C50EA0102F7D150
:1010F0002B46324621464046BDE8F041FFF7C2BECE
:10110000000000002D0000002B0000002000000067
:1011100030B4002100F1240408E002F00705D208F1
:10112000303542EA4372DB086554491C52EA030534
:10113000F3D10468002310A2250707D5A40600D424
:1011400021B1C46901230DA2641EC46130BCFFF744
:1011500099BE10B5044621461068FFF78AFE024684
:101160002046BDE810400023D2E7D21D22F007013F
:10117000D1E90023CCE700000000000030000000AF
:101180003A2800D2303820F02002412A01D3A2F1BF
:101190003700884201D34FF0FF3070470268114496
:1011A0001378016018467047D16005497944516150
:1011B00004497944116200211161114600F0D4BC48
:1011C000EDFFFFFF5B020000426842B1016811F8C9
:1011D000013B23B1521EC0E900121846704701219D
:1011E000C160881E704742685AB1C368016843B93C
:1011F00083688B4205D0491E521CC0E900120020B2
:1012000070474FF0FF3070472DE9F05F824615467A
:101210008B4600270AF10104B9460078302801D036
:101220009DB113E014F8010B0127782803D058284A
:1012300001D045B10AE00DB1102D07D1002714F8F7
:10124000010B102502E0082500E00A250026B04623
:101250000EE005FB080005FB06F101271FFA80F8E8
:1012600001EB1046B6F5803F00D3B94614F8010BE8
:101270002946FFF785FF0028EBDABBF1000F05D008
:101280000FB1641E00E05446CBF80040B9F1000FE6
:1012900006D0FFF76BFD02210160C81EBDE8F09F7C
:1012A00048EA0640FAE710B500F03EFEBDE81040FF
:1012B00000F034BE431A28BF9A427FF673AC104444
:1012C00010F0030F11441EBF11F8013D521E00F82B
:1012D000013D10F0030F7FF4F6AF103AC0F00A8022
:1012E00010B531E91850103A20E91850BFF4F9AFA1
:1012F000BDE81040530724BF31E9081020E9081069
:1013000044BF51F8043D40F8043D12F0030F08BFFC
:101310007047D20728BF31F8023D48BF11F8012CB1
:1013200028BF20F8023D48BF00F8012C704700009C
:10133000004870479C4100207047000000487047FB
:10134000BC41002000210160C0E90110704710205D
:101350007047034640688C46002818BF88423CBF4F
:1013600003464068F8D318681844884207D00CF147
:10137000030020F00700001D411A521A0146081D03
:101380000A60FEF7E3BF30B5B0F10A024FEA900EF3
:1013900071F100034EEA817EB0EB0E0061EB91012A
:1013A0004FEA101E4EEA017E10EB0E0041EB1111C8
:1013B0004FEA102E4EEA016E10EB0E0041EB1121A8
:1013C0004FEA104E4EEA014E10EB0E0041EB114178
:1013D000401841F100014FEAD00040EA41704FEA65
:1013E000D10110EB80054FEA810444EA907444EB8C
:1013F00001046D1944EB0404521BA3414FF0000398
:1014000048BF0A3200D530BD401C41F1000130BD5B
:1014100010B50446FFF79EFC0068005D00F0010077
:1014200010BD70472DE9FF4F0C461E464FF0FF37A9
:101430008BB0D2E90001DDF860800A908A46C1F3E2
:101440000A5505B93D46002108464FF00000BAF1A3
:10145000000F00F4400005DA00EB80004FF440017B
:1014600001EA50004FEA9059B9F1010F00DDB94689
:101470000A9850EA4A000ED044F61050A5F2FF3503
:1014800045432F14B8F1000F1ED07542291E1EDDF2
:10149000C9F100021CE0B8F1010F4FF0000001D0CB
:1014A000302103E0F24305E02154401CB042FBDB55
:1014B00030460022002121540B99C1F80880C1E96F
:1014C00000200FB0BDE8F08FBD1B6D1CDEE74A4663
:1014D00000DA694206A800F0ABFD06AB93E807000E
:1014E00003AB83E8070050460A9900F064FE8DE8DC
:1014F0000700A0F500501F3800900398002D0ADD6A
:1015000042F21F014A460844002303A9039068469B
:1015100001F0CDF809E0A0F500504A461F3800233D
:1015200003A90390684601F0D7F88DE8070000048E
:10153000000C03D04FF0FF30410800E01046B8F136
:10154000000F03D00022009215461EE0751E05D440
:10155000FFF719FF303262556D1EF9D5B3460122EF
:10156000084302D000227F1C04E02078302801D1FB
:1015700000227F1E002A099784D01DE0112D07DA72
:10158000FFF701FF303262556D1C50EA0102F5D1C0
:10159000084302D00098C8B10EE00021681E05E0A3
:1015A000235C625C63542254401E491C8142F7DB79
:1015B000AB46A81B401E0990002004F80B000B98B6
:1015C000099AC0F80880C0E9002B7AE711264FF08D
:1015D000000857E72DE9F04F88460446D21D22F057
:1015E000070191B0D1E90001CDE90A0105F0A9FB9D
:1015F00002460B98C00F01D02D2007E0206881071C
:1016000001D52B2002E0202101EAC000032A099025
:1016100001D0072A05DB03464146204600F0C8FCFE
:101620000BE12078800601D5E06900E00620B8F1E2
:10163000650F814606D0B8F1660F18D0B8F1670F74
:1016400070D131E00020B9F1110F009001DB1123BE
:1016500001E009F101030AAA01A90CA8FFF7E2FEC3
:10166000DDE90C70002609F10105834647E0012001
:101670004B4600904FF000470AAA01A90CA8FFF7BB
:10168000D1FEDDE90DB00C995D46002610B909F1D7
:1016900001000D18B9EB050003D4C0F1FF3609F1C4
:1016A0000105A5EB09002BE0B9F1010F01DA4FF0BC
:1016B00001090020B9F1110F0090484601DD112306
:1016C00000E003460AAA01A90CA8FFF7ABFEDDE97A
:1016D0000C704D4600268346207800070AD4AB459F
:1016E00000DA5D4601A8012D04DD411911F8011C45
:1016F000302907D04F4502DA17F1040F04DA012030
:1017000082460FE06D1EEEE7002F02DCED1B3E442B
:1017100003E0781CA84200DD7D1CB81B00F1010A23
:101720004FF000472078000703D4AA4501DB4FF0B3
:10173000FF3A0021B7F1004F0DF143088DF8431037
:1017400024D002202B23002F01DA7F422D230A21EF
:10175000021EA0F1010000DC5FB197FBF1FC97FBDA
:10176000F1F201FB1C7C17460CF1300C08F801CD9E
:10177000EEE7A8F1010003702188090501D5452194
:1017800000E06521A0F1010800F8011C09980FA9EB
:10179000A1EB0807FF1D00B10120411901EBEA7020
:1017A000A1693844081A401EA0612078C00602D4FE
:1017B0002046FEF783FE099828B1D4E9012190471D
:1017C000206A401C20622078C00622D52046FEF701
:1017D00075FE1EE0002E04DBB34502DD01A8805D2E
:1017E00000E03020D4E901219047206A401C2062AB
:1017F000761CAAF101005FEA000A0AD1FFF79EFDFC
:10180000C0680168405CD4E901219047206A401C0F
:101810002062281EA5F10105DCDC07E0D4E90121E6
:1018200018F8010B9047206A401C2062381EA7F16F
:101830000107F3DC2046FEF757FE032011B041E616
:101840002DE9F04F04460D46D21D22F0070089B065
:10185000D0E900974846394605F073FA0246F80F7A
:1018600001D02D2307E02068810701D52B2302E05A
:10187000202101EAC0038DF820300BB1012000E0E7
:101880000020032A824601D0072A04DB294620468D
:1018900000F08EFB3FE12078800601D40D2500E0AA
:1018A000E569C7F30A560D2D49DA00214FEA175BA7
:1018B00008464FF00000002F00F4400007DA00EB6C
:1018C00080004FF4400100EBD07001EA6000811508
:1018D000012901DD4FF0FF3100224FEA850CBCF1F8
:1018E000180F06D31346ACF118004FF08052C240D7
:1018F00003E04FF4801323FA0CF30CF10C0CBCF151
:10190000200F04D3ACF1200C09FA0CF001E007FA27
:101910000CF000294FF0004801DD18B90FE00ED19E
:1019200040450CD319EB02095F4121B9404502D172
:101930009F4329EA0209BBEB175F00D0761C208881
:10194000000502D57B48784402E07A48784419388B
:1019500008AA302302F80A30037C0AF10101002EA4
:101960000AF1020A53546A4602DC4FF0300101E0EA
:101970004FF031014FF001088DF8001002D0A6F2AF
:10198000FF3603E059EA470100D06B4E002D02DC20
:101990002178090704D54FF002082E218DF8011097
:1019A000C44600210BE0C7F303433F01C35C491C5D
:1019B0006D1E02F80830052908F1010801DA002D32
:1019C000F1DC00210CE000EB1973491C1B786D1E43
:1019D000082902F808304FEA091908F1010801DA6C
:1019E000002DF0DC21688B0602D516E0A8F1010875
:1019F000E04505DD02EB080313F8013C302BF5D080
:101A0000B8F1000F09DD02EB080313F8013C2E2B9F
:101A100003D1090701D4A8F10108002D05DD3E21FD
:101A200002F808106D1E08F10108407C002E02F833
:101A3000080008F1010804DA2D20764202F80800B7
:101A400002E02B2002F808000A214FF47A70864247
:101A500008F101080BDB96FBF0F3303302F8083095
:101A600096FBF0F308F1010800FB136601E0642E19
:101A70000CDB642096FBF0F3303302F8083096FB61
:101A8000F0F308F1010800FB136601E00A2E06DB03
:101A900096FBF1F0303002F8080008F1010896FBDF
:101AA000F1F001FB1060303002F80800A16908F184
:101AB000010808EB050202EB0A00081AA061207871
:101AC000C00602D42046FEF7F9FC216A08AE01EBFD
:101AD0000A00206204E0D4E9012116F8010B9047C6
:101AE000BAF1010AF7D22078C00602D52046FEF7E7
:101AF000E5FC6E4609E016F8010B3E280FD0D4E94C
:101B000001219047206A401C2062B8F10108F2D2FE
:101B10002046FEF7E9FC09B00320BDE8F08F206AFB
:101B20002844206203E0D4E90121302090476D1E53
:101B3000EBD3F8E725E4000002FCFFFF10B5436992
:101B400013B1AFF3008001E0FFF746FA012010BDAA
:101B5000128800F1240182840022C2840122EDE770
:101B600011684FF0FF32E9E72DE9F34F4FF0000A1B
:101B70000C4656468DB001200C9001F10C000B90E4
:101B800062690B9801219047051E2DD0252D2CD080
:101B9000216A8847C0B162690B9801219047216A88
:101BA00088470028F7D16269411E0B98904700E0F2
:101BB000761CA1690D988847216A88470028F7D1CB
:101BC000E1690D988847DBE7A1690D988847A8422D
:101BD000074601D1761CD3E7E1690D9888477F1C41
:101BE00002D1BAF1000F6FD06CE162690B98002747
:101BF0003D46394690472A2804D162690B98012155
:101C000090470125DFF8D08262690B980121904747
:101C1000A0F130010A290AD24745E5DC07EB87012C
:101C200000EB4107303FDFD445F01005ECE7E90653
:101C300001D46FF000476C280AD04C2814D06828D3
:101C400015D06A280DD074281CD07A281AD01DE02F
:101C500062690B98012190476C2802D045F0040579
:101C600014E045F002050DE045F020050AE0626948
:101C70000B9801219047682802D045F0080505E03F
:101C800045F4006562690B9801219047C4E901574A
:101C900065283DD019DC58287AD00CDC452837D08F
:101CA00004DC252826D041289ED131E046282FD0BB
:101CB000472899D12CE05B2877D0612828D0632869
:101CC0007CD0642823D15AE0F7E06F2848D008DCA4
:101CD00066281DD067281BD0692821D06E2816D110
:101CE00027E0702845D0732868D0752847D0782819
:101CF0000DD14DE0A1690D988847252805463FF490
:101D000069AFE1690D9888476D1C3FF46AAFD9E06F
:101D10000D9923466A466FF00100AFF30080C6E0DC
:101D200045F0400023464FF000026060A80736D41B
:101D30003EE0E8077FF447AF2068011D216000689E
:101D4000290501D506701BE7290701D5068017E78D
:101D5000A90703D5F117C0E9006111E706600FE795
:101D600045F0400023464FF008026060A80716D4F3
:101D70001EE040F60E0125EA0100606016E045F025
:101D8000400023464FF00A026060A80707D40FE026
:101D900045F040006060A80708D5234610220D9941
:101DA0006FF00100AFF3008081E007E010222346CE
:101DB0000D996FF00100FEF739FD78E04FF0000952
:101DC00063284F46C8464B46CB4602D05B2807D017
:101DD00039E02079C00601D40120A060012732E05B
:101DE0006269D4F80CB00B98012190475E2807D1A6
:101DF0004FF0010949466269D4F80CB00B9890473E
:101E0000216939B900210A4603AB43F82120491C56
:101E10000829FADBD8B3216949B308F101086269DE
:101E20000B98012190475D28F4D1B9F1000F09D03A
:101E3000002003A951F82020D24341F82020401C63
:101E40000828F7DB03AB2069002820794FEA4070AF
:101E50001ED05B462246CDF80080CDE901970D9952
:101E600000286FF0010020DAAFF300801FE0C117F7
:101E700003AA00EBD1614B1121F01F0102EB830299
:101E8000411A13680120884003431360C7E719E033
:101E90000D99224600286FF00100009702DAAFF397
:101EA000008004E0AFF3008001E0AFF30080002881
:101EB0000ADA401C06D10C9820B14FF0FF300FB069
:101EC000BDE8F08F5046FAE7E90701D10AF1010AAF
:101ED000064400200C9053E6CCCCCC0C70B51646D2
:101EE0000C460546FEF736FF036893F8010101280A
:101EF00006D0FF2C0FD8185D68B101202C7070BD82
:101F0000D3F807013246214603F20713034428465B
:101F1000BDE8704018474FF0FF3070BD002801D079
:101F2000FEF712BF7047000010B5002102A000F0BC
:101F3000FAF8012010BD0000534947414252543A7B
:101F40002041626E6F726D616C207465726D696E96
:101F50006174696F6E00000010B500F0FDF8BDE817
:101F60001040FFF7DBBF7546FFF7E2F9AE4605000C
:101F70006946534620F00700854618B020B5FEF7A5
:101F8000BFF9BDE820404FF000064FF000074FF0CA
:101F900000084FF0000B21F00701AC46ACE8C00987
:101FA000ACE8C009ACE8C009ACE8C0098D46704790
:101FB0002DE9F0411F46044603260168072A01F473
:101FC000006004DB08B116A505E016A503E008B122
:101FD00015A500E015A521F010002060A069C01E25
:101FE000A0610FB1401EA0612046FEF767FA4FB115
:101FF000D4E9012138469047206A401C2062C01C69
:10200000206206E0206AFAE7D4E9012115F8010B05
:102010009047761EF8D22046FEF766FABDE8F081BA
:102020004E414E006E616E00494E4600696E66007C
:102030002DE9F047814616468AB0354878440DC8E8
:102040008DE80D0032487844801C03AC0DC884E84C
:102050000D0041F69B300844372190FBF1F290FBD4
:10206000F1F5A5F1800501FB12041B3C02D5644289
:10207000012000E00020DFF898A080460027FA4405
:10208000AAF1BE0A0EE0E0070AD03246684607EB26
:10209000470101230AEB810100F01EFB8DE80700D8
:1020A00064107F1C002CEED1194F7F44AE3F19E025
:1020B000E80715D007EB04100DF1180A90E80E00A0
:1020C0008AE80E00C068F04201D1981908903246A3
:1020D000012306A903A800F0FFFA03AB83E8070079
:1020E0006D10641C002DE3D14FF0010332466946A8
:1020F000B8F1000F03A802D000F0D9FA01E000F017
:10210000EBFAC9E90001C9F808200AB0BDE8F08778
:10211000C0DD000010B50446AFF300802046BDE8E6
:102120001040FEF7D4B870B505460C460A2000E012
:102130006D1C00F039F835B128780028F8D102E09C
:10214000641C00F031F814B120780028F8D1BDE803
:1021500070400A2000F028B810B5012805D00021F1
:1021600003A0FFF7E0FF012010BD09A1F8E7000080
:1021700053494752544D454D3A204F7574206F6670
:102180002068656170206D656D6F727900000000D8
:102190003A2048656170206D656D6F727920636FBC
:1021A000727275707465640008B569468DF8000038
:1021B0000320ABBE08BD5FEA400C08BF91F0000FE2
:1021C0004FEA8C234FEAC12243EA51514FEA1C5097
:1021D00018BF00F5F0404FEA300018BF41F0004151
:1021E0005FEA6C5C00F02980BCF1FF3F08BF40F063
:1021F00080407047130C06BF12044FF0100C4FF0D4
:10220000000C130E04BF12020CF1080C130F04BFD4
:1022100012010CF1040C930F04BF92000CF1020C9C
:10222000D30F04BF52000CF1010C11464FF0000215
:10223000A0F11F00A0EB0C00704711F0004F08BF89
:10224000704731F000413FF4D5AF0B0C06BF0904D5
:102250004FF0100C4FF0000C0B0E04BF09020CF1F4
:10226000080C0B0F04BF09010CF1040C8B0F04BF09
:1022700089000CF1020CCB0F04BF49000CF1010CDA
:10228000CCF12003A0EB0C0022FA03F302FA0CF2CB
:1022900041EA030100F10100704720F07F4C80EA21
:1022A000030023F07F47ACEB070303F57C5300F0FA
:1022B000004003F1FF032DE980494FEA154B09B4B3
:1022C0004FEA144325EA0B4E24EA03480FF2042692
:1022D00006EB132749083E785FEA320203FB0667E4
:1022E000C7F5000707FB06F64FEA54374FEAD64614
:1022F00006F1020607FB066CCCF1005C4FEA1C47B6
:102300002CEA074C07FB06F40CFB06F504EB15461C
:102310004FEA961634BF00204FF000404FEAD13705
:1023200006FB07FC4FEA1C4C0CFB0BF7D21B03FB14
:102330000CF761EB07010CFB0EF7B0EB074072EBFB
:1023400017420CFB08F734BFA2EB0742B2EB07427F
:1023500061EB17414FEA0C444FEA910706FB07FC7B
:102360004FEA1C4C0CFB0BF7B0EBC74072EB57323B
:1023700003FB0CF734BFA2EBC742B2EBC74261EBE1
:1023800057310CFB0EF7B0EBC70072EB57720CFB2A
:1023900008F734BFA2EBC702B2EBC70261EB57717B
:1023A000039F4FEA816141EA921104EBCC044FEAAA
:1023B000D1374FEA826206FB07FC42EA90124FEAED
:1023C00080604FEA1C4C0CFB0BF7D21B03FB0CF795
:1023D00061EB07010CFB0EF7B0EB074072EB174205
:1023E0000CFB08F734BFA2EB0742B2EB074261EBEC
:1023F00017414FEA8C554FEA910704EB9C2406FBEA
:1024000007FC4FEA1C4C0CFB0BF7B0EBC74072EB20
:10241000573203FB0CF734BFA2EBC742B2EBC74203
:1024200061EB57310CFB0EF7B0EBC70072EB577244
:102430000CFB08F734BFA2EBC702B2EBC70261EB9B
:10244000577115EB4C254FEA816141EA92114FEA31
:1024500082624FEAD13742EA901206FB07FC44F150
:1024600000044FEA80604FEA1C4C0CFB0BF7D21BB8
:1024700003FB0CF761EB07010CFB0EF7B0EB074019
:1024800072EB17420CFB08F734BFA2EB0742B2EB2A
:10249000074261EB174115EB1C154FEA813141EA08
:1024A00092414FEA823242EA90424FEA80304FEA4C
:1024B0000C7644F1000448EA03434EEA0B484FF01F
:1024C000000EB2EB080C71EB030724BF62463946DD
:1024D0004EEB0E0E4FF0000B0018524149414BEBF2
:1024E0000B0BB2EB080C71EB03077BF1000B24BF65
:1024F000624639464EEB0E0E4FF0000B001852416B
:1025000049414BEB0B0BB2EB080C71EB03077BF172
:10251000000B24BF624639464EEB0E0E51EA02070D
:1025200018BF46F0010616EB0E7655F1000254F185
:10253000000103D5BDE88901BDE80088BDE8890137
:10254000BDE80048B619524141EB0101A3F1010376
:10255000704780807F7E7D7C7B7A79787776767510
:102560007473727171706F6E6E6D6C6C6B6A6A6988
:102570006868676666656464636362616160605F22
:102580005F5E5E5D5D5C5C5B5B5A5A59595858579B
:102590005756565555555454535352525251515003
:1025A00050504F4F4F4E4E4D4D4D4C4C4C4B4B4B56
:1025B0004A4A4A494949484848474747474646469C
:1025C00045454544444444434343434242424241D7
:1025D0004141002B9C4630D477002BD01CB54FEAEC
:1025E000370703B44FF010004FF01001BAF1000F9D
:1025F00006D0BCF1000FDCBF40F0080040F008013D
:102600004FF000000FBCBDE810400BF1010BBBF117
:10261000010F08BF5FEA170722BF12F1010211F193
:1026200001014FF0004143F1000300F0004043EA94
:1026300000007047F9D35708D0E746EA064613F181
:10264000400F4FEA16461FDD13F1200FDFBF164380
:102650000A46002120335B42BED0C3F1200746EA80
:10266000064602FA07F74FEA164646EA0706C3F19E
:10267000200722FA03F201FA07F721FA03F14FF0DB
:10268000000342EA0702A7E746EA020646EA0646D0
:102690004FEA164646EA0106BCBF46EA0646360C35
:1026A0004FF000034FF000024FF0000194E72DE9D6
:1026B000804C9A46934670B491E8380007C831EAD6
:1026C000400C48BF34EA430C03D5FFF7E6FDFFF7A3
:1026D00080FFF0BCBDE8008C2DE9804C9A46934603
:1026E00070B491E8380007C810F0804F08BF13F0AD
:1026F000804F03D100F005F8FFF76BFFF0BCBDE899
:10270000008C20F07F4780EA030023F07F4C07EB2A
:102710000C03A3F57C5300F00040A3F1FE0392F0FC
:10272000000F00F0B38095F0000F00F077802DE9E6
:1027300001494FEA11404FEA144621EA004800FBE4
:1027400006FC24EA064708FB06F607FB08F800FB30
:1027500007F718EB06484CEB164C4FEA124B18EBF8
:1027600007484FEA15464CEB174022EA0B4E0BFB8D
:1027700006FC25EA06470EFB06F607FB0EFE0BFBE2
:1027800007F71EEB064E4CEB164C4FF000061EEB07
:10279000074E4CEB174B18EB0B0840F1000018EB01
:1027A0000E0B58EB000840F100008F1A4FF00001AB
:1027B0003CBFC943661B14BFB5EB040C00213CBFF2
:1027C000C943F61B4FEA17444EEA8E0E27EA04452A
:1027D0004FEA1C4704FB07622CEA074C05FB07F78E
:1027E0000CFB05F604FB0CFC16EB074642EB17420C
:1027F00016EB0C4642EB1C421BEB060658EB0202A2
:10280000414146EA9E0601D5BDE80189B61952410B
:1028100041EB0101A3F10103BDE801894FEA144531
:102820004FEA114724EA054621EA074C05FB07F465
:1028300006FB07F70CFB06F105FB0CFC11EB07414F
:1028400044EB17444FEA124711EB0C4144EB1C4494
:1028500022EA074C05FB07F206FB07F70CFB06F61E
:1028600005FB0CFC16EB074642EB174216EB0C4639
:1028700042EB1C456A1854F1000148BF7047B61975
:10288000524141EB0101A3F10103704795F0000FA4
:1028900037D04FEA11424FEA144721EA024624EAB0
:1028A000074C02FB07F106FB07F70CFB06F402FBE3
:1028B0000CFC14EB074441EB17414FEA154714EBAE
:1028C0000C4441EB1C4125EA074C02FB07F506FBD3
:1028D00007F70CFB06F602FB0CFC16EB074645EB74
:1028E000174516EB0C4645EB1C42121951F100013D
:1028F00048BF7047B619524141EB0101A3F10103F2
:1029000070474FEA14454FEA114724EA054621EA89
:10291000074C05FB07F106FB07F70CFB06F24FF02F
:10292000000605FB0CFC12EB074241EB174112EBD2
:102930000C4251EB1C4148BF7047921841EB01011A
:10294000A3F1010370470000F8B504F0A9F81424BE
:102950004FF4FA6137A003F0D1FF00278DF8007023
:10296000444D0AE0642001F0C1FE6946286803F086
:1029700013FC9DF8000077280FD0641EA4B2F1D29A
:102980003D4D3E49286888420FD13DA003F0B6FF77
:10299000687DBDE8F84001F0E7B842A003F0AEFF63
:1029A00000F01AFA47480770F8BD01F003F9044631
:1029B00001F008F90646A87D022801D038B10BE0E5
:1029C000414803F09BFF2E753446AF7504E03F4845
:1029D00003F094FF0220A8751CB342213CA003F031
:1029E0008DFF012C1FD0424C2068A0F10051B1F5A1
:1029F000E03F1AD8FDF772FC60683E4C60603E48CC
:102A000003F00AF83C4803F0B3F93C4802F008FD33
:102A100008213B4801F026FF606801B0BDE8F040A6
:102A200000474121DAE7374CDEE7BDE8F84036A041
:102A300003F064BF696620796F752077616E74203A
:102A4000746F20656E74657220636F6E736F6C6552
:102A50002C20706C6561736520696E707574202719
:102A600077272077697468696E2025646D730D0A75
:102A70000000000044000020480000202211BBAAF2
:102A80005B494E464F5D204F544120757064617420
:102A9000652066726F6D2073746167696E670D0AD9
:102AA000000000005B494E464F5D20456E74657224
:102AB00020636F6E736F6C652073756363657373EA
:102AC000210D0A0000000020A0050108E80501080A
:102AD0005B494E464F5D20426F6F7420616374699D
:102AE000766520736C6F742025630D0A000000006A
:102AF000000002083C000020D804002080040020D0
:102B000000180240000008085B4552524F525D20F9
:102B10004272616E6365206661696C6564210D0AAD
:102B2000000000002DE9F05F007800264D4F4E4D6B
:102B3000DFF838B131384FF003084FF480144FF00C
:102B4000010A4FF4C01908283ED2DFE800F004174C
:102B50003F454D767B8501F035F80446454601F04A
:102B600039F8C0B2294603F0D1F92CB1422140A076
:102B7000BDE8F05F03F0C2BE4121F8E743A003F0D7
:102B8000BDFE50A003F0BAFEC4F3074003F0DAFE26
:102B900004F580344C45F7D354A003F0AFFE87F81A
:102BA00000A0A5F80064A5F80264C5F80464C5F89F
:102BB0000864A5F80C6485F80E64544685F80F6423
:102BC00001F074F88BF80040BDE8F09F50A003F0CE
:102BD00095FE87F80080F7E757A003F08FFE03F01B
:102BE0005FFF5F495FA0C3E764A003F087FE35A0E5
:102BF00003F084FEC4F3074003F0A4FE04F5803420
:102C00004C45F7D339A003F079FE87F800A0A5F86A
:102C10000064A5F80264C5F80464C5F80864A5F862
:102C20000C6485F80E6485F80F6401F03FF84C4899
:102C30008BF8006008384660C6E750A003F05EFEDF
:102C400004200DE054A003F059FE642001F04EFD75
:102C5000BDE8F05F02F068B854A003F04FFE052015
:102C60003870B1E700000020600000203C00002028
:102C70005B494E464F5D20457261736520736C6FF2
:102C800074202563204F4B210D0A00005B494E46FE
:102C90004F5D20556172742049415020646F776EFA
:102CA0006C6F6164207061636B61676520696E742D
:102CB0006F206D6375205374617274696E67210DA6
:102CC0000A0000005B494E464F5D20457261736506
:102CD000205732355136342073746167696E67202E
:102CE000626C6F636B2E2E2E0D0A00005B494E4600
:102CF0004F5D20457261736520573235513634205F
:102D000073746167696E67204F4B210D0A000000E4
:102D10005B494E464F5D205365742076657273693A
:102D20006F6E206E756D6265722053746172746986
:102D30006E67210D0A0000005B494E464F5D205131
:102D4000756572792076657273696F6E206E756D28
:102D5000626572205374617274696E67210D0A0096
:102D60005000002076657273696F6E206E756D621B
:102D700065723A2025730D0A000000005B494E463B
:102D80004F5D20446F776E6C6F6164205374617285
:102D900074696E67210D0A005B494E464F5D2052F3
:102DA00065736574204F4B210D0A00005B494E4648
:102DB0004F5D204170706C79204850617463684C9D
:102DC0006974652064656C74612053746172746900
:102DD0006E67210D0A00000010B50DA003F08EFDF6
:102DE00012A003F08BFD1CA003F088FD21A003F0CE
:102DF00085FD27A003F082FD2EA003F07FFD37A004
:102E000003F07CFDBDE8104037A003F077BD000063
:102E10005B315D20457261736520696E6163746921
:102E2000766520617265610D0A0000005B325D20ED
:102E3000556172742049415020646F776E6C6F61E8
:102E400064207061636B61676520696E746F206DCB
:102E500063750D0A000000005B335D20536574202C
:102E600076657273696F6E206E756D6265720D0A9C
:102E7000000000005B345D20517565727920766535
:102E80007273696F6E206E756D6265720D0A000057
:102E90005B355D20446F776E6C6F61642070616399
:102EA0006B61676520696E746F2057323551363417
:102EB0000D0A00005B365D20446F776E6C6F6164B5
:102EC0002066756C6C207061636B6167652066724B
:102ED0006F6D205732355136340D0A005B375D2057
:102EE00052657365740D0A005B385D204170706C2B
:102EF000792064656C7461207061636B6167652023
:102F000066726F6D205732355136340D0A0000005D
:102F10002DE9F04FFE4891B0FC49006803F03CF900
:102F2000FC4E0746DFF8E4B33078DFF8ECA3DFF8B7
:102F3000EC93FB4D00244FF0020806287ED2DFE818
:102F400000F0030B63FDFCFB012F02D1EF48FFF7FC
:102F5000E9FD11B0BDE8F08FADF800408DF80840F4
:102F60008DF80C4002AB6A463946E84803F059FE3A
:102F700010B19DF8080098B10A2001F0B7FBBAF82B
:102F800000045546642805D34321E6A003F0B6FCAF
:102F9000A5F80044B5F80004401CA5F80004D8E7E3
:102FA00003AB01AA0194BDF800100BF1030003F07C
:102FB00099FE38B39DF80C0008B1DBA076E10198CA
:102FC0006860752804D8D9A003F098FCE2A06DE1F0
:102FD000E248446784670467C467C0F88040C0F86B
:102FE000844080F86C4001208AF80F048AF80E04AF
:102FF000CDA003F083FC4321CAA003F07FFC86F838
:103000000080A6E7D4A038E1A146ADF83C408DF899
:103010004040012F03D19BF80000042827D010ABBB
:103020000FAA3946B94803F0FCFD002891D09AF860
:103030000E049DF8401088427DD100E07BE2B84943
:10304000BDF83C00496839B1DAF804248A4276D2E6
:1030500013188B4200D9881A002870D08046BF48C8
:10306000002500F188019C30CDE90710F0E0BAA0FE
:1030700003F044FCB948006F03F002FEB848007842
:1030800018B1687D00F070FD63E786F8009060E796
:10309000B248A8EB0504D0F88020142A53D2C2F11C
:1030A00014018C4200D30C46074607980BEB050130
:1030B00010442246C91CFDF7EEFCD7F880002544D9
:1030C0002044C7F880001428D0D109AA14210798F9
:1030D00000F086FD78B10C990A9801440D98613092
:1030E00001448F484268914207D09EA003F006FC3D
:1030F00086F80090AFE0A2A0F8E70D99602908D803
:103100000C9931B1B1F5C02F05D9A5A003F0F6FB9C
:10311000EEE7AEA0EAE739670D99B9670B994175FB
:103120003C46032003F038FC14224FF4405007992A
:1031300003F0EEFC04E09AE0B2E1BAE0A0E090E037
:1031400084F86C9084E0D0F88420612A1ED2C2F109
:1031500061018C4200D30C46074608980BEB050131
:1031600010442246C91CFDF796FC57F8840F2544ED
:103170002044386061286BD1022003F00DFC6122ED
:103180004FF40050089903F0C3FC61E0026FC16F77
:103190008A4235D9501A844200D30446099428E063
:1031A000BAF80C34C3F58067BC4200D227460BEB5B
:1031B000050103EB0A003A46C91CFDF76CFCBAF89E
:1031C0000C04E41B384480B24FF480625146AAF8E4
:1031D0000C043D4490420CD30F46D1F808044E49EC
:1031E00007F5816703F0A4FD3868401C3860A7F834
:1031F0000490002CD4D159480999C26F114426E09B
:103200008F1A826FBA4201D825441FE0D11B8C422D
:1032100000D30C4651480BEB05013844039122467C
:10322000FD30C91CFDF737FC4C48416F381981420D
:1032300001D24A494867039943F2140022463844B0
:10324000C91C03F065FC45482544C16F2144C16792
:103250004545FFF41DAFDAF8042402EB0801CAF873
:1032600004149AF80E14491C8AF80E1404E0401E47
:10327000C0B288427FF4C6AE2BA003F03FFB68E6E5
:103280000B2FFCD10EAB1A4659A12048FDF7B0FA1E
:103290000228F4D1AC602248EC603A461B49083061
:1032A0002C61FDF7F8FB03F091FC55A003F026FB21
:1032B00041E103F0F5FB684600F01CFD002821D039
:1032C000029820B156A000BF03F018FBCBE0039991
:1032D00069606C755EA003F011FB00F073FC07469B
:1032E000012810D05D484FF003098246384600F0AF
:1032F00071FCC0B2494602F009FE6968B1F5C02F01
:1033000002D9ADE0EAE0B5E0B6E00000A409002093
:103310004400002000000020600000200000080899
:103320004800002025630000060000005B45525263
:103330004F525D2046696C652073697A6520746F11
:103340006F20736D616C6C20666F722068656164BC
:1033500065720D0A00000000150000001C2C002002
:103360003C0000205B4552524F525D204F5441209B
:1033700073697A65206D69736D617463680D0A0005
:103380005B4552524F525D20496E76616C696420F4
:103390004F5441206865616465720D0A00000000A9
:1033A0005B4552524F525D204669726D776172657E
:1033B00020746F6F206C6172676520666F72207376
:1033C0006C6F743A20256C750D0A00005B455252F3
:1033D0004F525D204F5441206865616465722066DC
:1033E00069656C647320696E76616C69640D0A00AE
:1033F00076657273696F6E25642E25640000000087
:103400005B494E464F5D2053657420766572736943
:103410006F6E206E756D626572204F4B210D0A0034
:103420005B4552524F525D205061636B616765206E
:1034300074797065206D69736D617463682C2065A3
:1034400078706563742066756C6C0D0A000000006E
:1034500073697A653A20256C750D0A000000020830
:1034600038A003F04BFA347085F816802C6003F016
:10347000ADFB6EE5484636E752464FF4801000F04B
:103480003FFA48B12F752C60AC7503F09FFB287D87
:1034900020B1422136A04CE040A015E74121F9E7D8
:1034A00000F088FB824600F08DFB0746BAF1010F61
:1034B00010D04348012F83460ED04148824603F086
:1034C000EFFA03A800F016FC40B10598012807D0D8
:1034D0003CA0F9E64846EDE74846EFE745A0F3E6AD
:1034E00006990120696068754DA003F007FA6868C5
:1034F00018B1A946B0F5C02F01D94EA0E4E60325C6
:10350000384600F067FBC0B2294602F0FFFC4D468A
:1035100053465A464FF48010D9F8041000F0BEF814
:1035200058B12F752C60AC7503F050FB3FB14221B0
:1035300048A003F0E3F934700BE550A0C4E6412144
:10354000F6E700005B4552524F525D204669726DAE
:10355000776172652073697A652065786365656453
:103560007320736C6F743A20256C750D0A0000008F
:103570005B494E464F5D2050726F6772616D2073DC
:103580006C6F742025632066726F6D2073746167A1
:10359000696E67204F4B210D0A0000005B455252B7
:1035A0004F525D204465637279707420616E6420AF
:1035B0007772697465206661696C65640D0A000044
:1035C000000002085B4552524F525D205061636B10
:1035D0006167652074797065206D69736D617463CE
:1035E000682C206578706563742064656C74610D67
:1035F0000A0000005B4552524F525D2056657269C9
:103600006679207061636B61676520696E2057324F
:1036100035513634206661696C65640D0A0000001E
:1036200064656C74612073697A653A20256C750D48
:103630000A0000005B4552524F525D2044656C7495
:10364000612073697A6520696E76616C69640D0A20
:10365000000000005B494E464F5D2044656C74617C
:103660002070726F6772616D20746F20736C6F745D
:10367000202563204F4B210D0A0000005B4552526C
:103680004F525D2044656C7461206170706C7920CC
:103690006661696C65640D0A000000002DE9F04365
:1036A000ADF6342D4FF000040294984691460E007A
:1036B00007462546CDF81C4A26D040F6AC1103A893
:1036C000FDF7D7FACDE90776CDE90A9861220DF624
:1036D000B8114FF4005000F0BDFA0DF6B8121021E9
:1036E0000DF6242000F07EF900280ED00DF588603C
:1036F000064605F02EFE80220DF62421304605F008
:103700002DFE00286ED104E000200DF6342DBDE81A
:10371000F0830DF6092110220DF26C50FDF7BBF974
:10372000CDF8684501208DF83C04CDF85C4503A830
:103730000390CDF8604530480490CDF864452F489B
:1037400005902F4806900DF61C20CDF858450090A6
:10375000DDE9030102AB0DF5226205F0A7FC40B1E3
:103760009DF8200A4FF4806428B1012809D025A0D3
:103770001CE030A01AE0DDF81C0A00281BD036A09F
:1037800014E0414903A809F0EAFD411EB1F5006FBC
:1037900001D33EA00AE0CDE90004454B3A4A03A913
:1037A0000DF67C1009F0BAFD18B142A003F0A6F89E
:1037B000AAE7484804902346474A03A8029905F01F
:1037C000D2FC50B1012103A800F099FB20B102996D
:1037D0000C98884205D1012504E040A003F08EF842
:1037E00000E00025304605F0ADFD10210DF6242047
:1037F00009F0A4F8284688E7773F000867400008EA
:103800007D4000085B4552524F525D204850617424
:1038100063684C69746520636F6D707265737320A3
:103820007479706520756E737570706F72746564ED
:103830000D0A00005B4552524F525D206870617462
:1038400063685F6C6974655F6F70656E206661693F
:103850006C65640D0A0000005B4552524F525D20BA
:103860004850617463684C69746520756E636F6D50
:1038700070726573732073697A6520696E76616C06
:1038800069640D0A000000004D4000085B4552527B
:103890004F525D2074696E79757A20646963742073
:1038A00073697A6520696E76616C69640D0A00003F
:1038B000AE1900205B4552524F525D2074696E79FB
:1038C000757A206F70656E206661696C65640D0A9B
:1038D0000000000009400008AE1500205B45525270
:1038E0004F525D206870617463685F6C6974655FD6
:1038F0007061746368206661696C65640D0A00001C
:103900002DE9F04FEFB093460F4682460024612226
:1039100049A94FF400506E9400F09CF949AA102177
:1039200062A800F05FF8002837D00DF27511102260
:103930006AA8FDF7B0F866946794689403A8699440
:1039400005F007FD802262A903A805F007FDE0B994
:1039500000254FF48069DFF8848033E07C1B4C4500
:1039600000D94C460AEB050022461D4900F072F9C9
:103970001B4966AACDE900216AABCDF808806EAA82
:10398000214603A805F09CFC50B103A805F0DAFC21
:10399000102162A808F0D2FF00206FB0BDE8F08FC0
:1039A000E01C20F00306A64205D9311B08EB0400F9
:1039B000FF22FDF734F9B2080BEB0500074902F0CE
:1039C000DFFA2544BD42C9D303A805F0BBFC102192
:1039D00062A808F0B3FF0120DFE70000AA11002071
:1039E000AA0D00202DE9F047ECB08146002788465B
:1039F000154602F1410605A86A9705F08CFF0321E0
:103A000005A806F009FA04004FD124A82022334962
:103A1000824608F09CFB040047D1514605A806F0F9
:103A200053F8040041D12878042801D02C4C3CE004
:103A30002A4630A941230D4605A806F02BFB0400B9
:103A400033D1294605A806F0D5F804002DD1254824
:103A5000CDE90007402352AA6AA905A805F0D6FEC1
:103A6000040022D16A98202801D91F4C1DE0202192
:103A700062A8FDF7FEF86A9A62A8801A52A920305F
:103A8000FDF709F8062007F01BFD10B32021009177
:103A9000072316A4CDE90143CDE9039862AB1022B8
:103AA000314606F059FB040003D0214611A002F074
:103AB00025FF202162A808F041FF402152A808F00C
:103AC0003DFF05A805F002FF34B100206CB0BDE851
:103AD000F0874FF0FF34E8E70120F7E7F8FC000833
:103AE00080B3FFFF213B000880B0FFFF4F54412D02
:103AF000414553005B4552524F525D20426F6F74F7
:103B00005F4465726976654165734B6579206661CE
:103B1000696C65642C207265743D25640D0A000093
:103B20002DE9F843002416468846274613E0351B46
:103B300069460B48009701F0A9FB10B10948BDE8A0
:103B4000F883042D00D9042508EB04002A466946B1
:103B5000FCF7A1FF2C44B442E9D30020EFE70000BA
:103B60007004002000B3FFFF10B5074C40B10128DE
:103B700008D0014605A002F0C1FE0020207010BD53
:103B80000420FBE70520F9E7000000205B455252C6
:103B90004F525D20556E6B6E6F776E204F544120F3
:103BA0007061636B61676520747970653A20257573
:103BB0000D0A00000248007D012800D00020704757
:103BC0004800002010B5FFF7F5FF08B1002010BD38
:103BD000012010BD012801D0052070470820704742
:103BE000F0B514292BD352B383780188857A63F317
:103BF0001F41C378867B41EA036483798188877C8F
:103C000063F31F41C37941EA0363018965F31F41EF
:103C1000C57A41EA0561858966F31F45C67B45EA99
:103C20000665068AC07C67F31F4646EA0060084EB8
:103C3000B44204D1142B02D119B1012901D00020C2
:103C4000F0BD1460C2E90350C2E901310120F0BDAA
:103C50004841544F2DE9F0471546884606464FF433
:103C600080791CE0F7B2C7F58074C6F30F20AC4230
:103C700000D92C4637B94C4504D12246414602F0C2
:103C8000E1FE09E04A46084902F0DCFE0648224609
:103C9000C1194046FCF7FFFE2644A0442D1B002D11
:103CA000E0D1BDE8F0870000B025002010B5104C31
:103CB00094F86C0010B1204608F0F0FE002004F8E3
:103CC0006C0F14216060A060E06020616061A06101
:103CD0000748883008F032FE054861219C3008F022
:103CE0002DFE03486021BDE81040FD3008F026BEDF
:103CF0001C2C00202DE9F0418046A4B0142250492C
:103D00004FF44050FFF7A6FF1DAA14214C48FFF7BF
:103D100067FF00287ED02198002862D0602860D8F4
:103D200047490246143143F21400FFF793FF02A8FB
:103D300008F0BAFE002102A808F0DAFE1422404979
:103D400002A808F01FFF3E49612274314FF4005071
:103D5000FFF780FF3A496122743102A808F012FF90
:103D60004FF48015AE12209C11E03246944200D8E8
:103D700022463349174674312846FFF76BFF304916
:103D80003A46743102A808F0FDFE3D44E41B002CC5
:103D9000EBD12C4902A808F0DCFD02A808F07EFE59
:103DA00028495B2220310020FFF754FF22A808F0A9
:103DB00011FD24495B22203122A808F00FFD88B1B3
:103DC00022A808F0E3FC1E486021143008F0B6FD7C
:103DD0001B483146743008F0B1FD2021194808F025
:103DE000ADFD26E0164821991430CDE900012023CD
:103DF000144A062122A808F071FD044622A808F002
:103E0000C5FCB8F1000003D014221DA9FCF7CAFEBE
:103E1000602100E00EE00A48143008F08FFD0848E9
:103E20003146743008F08AFD2021064808F086FDEE
:103E30001CB1002024B0BDE8F0810120FAE70000A9
:103E40002B2700209F2B0020FEE70000014800F0F8
:103E5000DBBA00002005002001681823CAB2103A1E
:103E6000B2FBF3F2054B6FF30901032A9B5CC365B8
:103E700000D9091D81650846704700003ED400083E
:103E800010B5014600208B698A6A4FF0C07453B1A7
:103E9000B3F5005F15D072B1012A0CD0022A0AD006
:103EA000032A09D104E01AB1012A06D0022A03D15B
:103EB000C96AC90100D5012010BDC96AA142FAD062
:103EC00010BD002AF7D0012AF2D0022AF3D0032A2B
:103ED000F3D010BD30B50468256825F48025256031
:103EE000046863608368402B036803D099600068AE
:103EF000C26030BD9A600068C16030BD70472DE976
:103F0000F0410446D0F82C040F4628B304F12806EB
:103F10008FB1C11C21F0030540F204418D4202D94A
:103F20000020BDE8F081A84208D2291A3044FF22BF
:103F3000FCF775FE02E030F003050DD0D4E908016E
:103F40000844AA08314602F01BF8606A28446062FF
:103F500027B10020C4F82C040120E2E7D4F82C0497
:103F6000471B05D061193A4630462831FCF7D8FD89
:103F7000C4F82C74F0E72DE9FE4F1700894604467B
:103F80004FF0000633D0B9F1000F30D094F8300470
:103F900000282DD0D4E90501814202D30020106011
:103FA00030E03D68401A4FF4806A854227D90546C3
:103FB00025E0A5EB0608D04500D9D046A1692069C7
:103FC0004246084404F5AE618B46FFF743FE04F514
:103FD000AA62CDE9002B09EB0600029004F5AC6360
:103FE000121F414604F2344005F06AF910B1002076
:103FF000BDE8FE8FA169464401EB0800A061AE4216
:10400000D7D33E600120F3E72DE9F84315000F46B2
:104010004FF0000410D07FB100F517682E6810E053
:10402000301B009039196A46404609F0B8F80099EB
:104030000C4420B1012806D00020BDE8F8830029F7
:10404000FAD0B442ECD301202C60F6E738B5144620
:10405000126800926A46FFF78EFF002802D000988F
:104060002060012038BD10B5C069144601441A46CD
:104070002046FCF710FD012010BD00002DE9F041A5
:1040800017468846054600261FE000BFD5F82C24B9
:10409000BC1BC2F58060844200D9044605F12800AB
:1040A000104408EB06012246FCF7F5FCD5F82C0479
:1040B00026442044C5F82C04B0F5806F05D30021B8
:1040C0002846FFF71CFF002802D0BE42DED30120A5
:1040D000BDE8F08172B6FEE7002229B101291AD0AD
:1040E00002291BD04FF440720E490B6823F4407331
:1040F0000B600B6813430B600A6822F078020A60B9
:104100000A68022303EBC00002430A60086840F417
:104110008030086070474FF48072E5E74FF400721A
:10412000E2E70000103C02401348016889050FD502
:10413000016821F400710160016841F400610160CF
:10414000016821F400610160016841F400710160BF
:10415000016849050FD5016821F48061016001689B
:1041600041F480510160016821F4805101600168CF
:1041700041F4806101607047003C024008490A68D0
:1041800022F440720A600A6842F004020A600A6877
:104190004FF4803343EA002002430A607047000076
:1041A000103C0240064A136823F4407313601368FE
:1041B0001360136843F0010313600170704700003F
:1041C000103C0240094910B50C6824F440740C609E
:1041D0000C6844F440740C600C6844F001040C60FA
:1041E0000260BFF36F8F436010BD0000103C0240BF
:1041F000074A136823F440731360136843F4807311
:104200001360136843F001031360018070470000DE
:10421000103C0240074A136823F44073136013688C
:1042200043F400731360136843F0010313600160EB
:1042300070470000103C024017490868C206174842
:1042400005D5C26942F01002C26110220A600A68F4
:10425000920605D5C26942F00802C26120220A60B6
:104260000A68520605D5C26942F00402C2614022C2
:104270000A600A68120605D5C26942F00202C261EC
:1042800080220A600A68920705D5C26942F02002BE
:10429000C2610220086070470C3C0240040000200C
:1042A00070B5114904460020C86100F08DFC064637
:1042B0000E4D09E0601C07D024B100F085FC801B86
:1042C000A04201D9032070BD2868C003F2D4286839
:1042D000C00701D001202860286810F0F200F2D059
:1042E000FFF7AAFF012070BD040000200C3C024033
:1042F0002DE9F0410446876D00F066FC064694F80F
:1043000035000025022806D08020606584F83450EE
:104310000120BDE8F0812068016821F016010160EC
:104320002068416921F080014161206C08B9A06CCE
:1043300020B12068016821F008010160206801684F
:1043400021F0010101600CE000F03EFC801B05281B
:1043500007D920206065032084F8350084F83450A4
:10436000D7E720680068C007EED194F85C103F20C2
:104370008840B860012084F8350084F8345000206B
:10438000C7E790F83510022903D08021416501204C
:104390007047052180F835100068016821F001019F
:1043A00001600020704770B504002BD094F83500F0
:1043B000022826D02068016821F0010101602068F0
:1043C0000025056020684560206885602068C5601C
:1043D000206805612168212048612046FFF73CFDE7
:1043E000E56325646564A564E564256594F85C204F
:1043F0003F2191408160656584F8355084F83450E0
:10440000002070BD012070BD2DE9F84304464FF037
:104410000009CDF8009063484FF41651A56D00686F
:10442000B0FBF1F72E6894F85C10082000FA01F157
:1044300031420FD021680A6852070BD50A6822F072
:1044400004020A6094F85C108840A860606D40F037
:104450000100606594F85C104FF0010808FA01F063
:10446000304208D021684969090604D5A860606D0A
:1044700040F00200606594F85C10042088403042EF
:1044800008D021680968890704D5A860606D40F0EC
:104490000400606594F85C1010208840304218D009
:1044A00021680968090714D5A860206801684903D4
:1044B00004D50068000308D5A16C07E00168C905B0
:1044C00003D4016821F008010160216C09B1204684
:1044D000884794F85C1020208840304231D0216811
:1044E0000968C9062DD5A86094F83500052820680C
:1044F000016806D0490347D5006800031DD4616CEC
:104500001CE021F0160101602068416921F0800162
:104510004161206C08B9A06C20B12068016821F0CD
:104520000801016094F85C103F208840A86084F87E
:10453000358084F83490216D1FE0E16B09B120468D
:104540008847606D00282BD0606DC00714D005200F
:1045500084F835002068016821F0010101600098AD
:10456000401C0090B84203D820680068C007F6D10C
:1045700084F8358084F83490E16C002910D001B0C3
:104580002046BDE8F04308470168C905D5D4016855
:1045900021F01001016084F8358084F83490CCE774
:1045A000BDE8F883300000202DE9F041044600F01A
:1045B0000BFB06465CB1022084F83500002584F828
:1045C00034502068016821F0010101600DE00120F4
:1045D000BDE8F08100F0F8FA801B052805D92020FD
:1045E0006065032084F83500F2E720680068C007A2
:1045F000F0D12268116820480140D4E90103184332
:10460000D4E903363343184363691843A369184355
:10461000E3691843236A18430843616A042903D1F4
:10462000D4E90B1319430843106020684069666A97
:1046300020F0070130460E43012704280CD1A06A60
:104640000643E06A40B12046FFF71AFC20B1402043
:10465000606584F83570BAE7206846612046FFF748
:10466000FBFB94F85C203F2191408160656584F8F4
:1046700035700020ACE700003F8010F02DE9F041DC
:104680000446866D90F83400002501280DD00120E5
:1046900084F8340094F835700020012F07D084F896
:1046A000340002252846BDE8F0810220FBE70227FE
:1046B00084F8357060652046FFF70CFC94F85C10B8
:1046C0003F208840B0602068016841F01601016019
:1046D000206C20B12068016841F008010160206869
:1046E000016841F001010160DCE7000070B504469B
:1046F00000F06AFA0546601C02D0044800780444C1
:1047000000F062FA401BA042FAD370BD24000020E2
:104710002DE9F047044622480F46017E01290AD0C0
:104720000121804601764CF250394846FFF7B8FD2A
:10473000020003D02FE00220BDE8F0874FF0FF30E9
:1047400038602068174D012801D0A6681CE0207C45
:104750006168FFF713FD4846FFF7A2FD024628688F
:1047600020F00400286014E0217C3046FFF7B4FC00
:104770004846FFF795FD0200286820F07A0028607F
:1047800001D03E6005E0761CD4E902100844B04236
:10479000EAD8FFF7C9FC002188F818101046CBE7CB
:1047A00004000020103C02400348016841F0004131
:1047B0000160002070470000103C02402DE9F047E6
:1047C0001B4E05461446307E1F468946012808D0F8
:1047D000012030764CF250384046FFF761FD18B1A9
:1047E00014E00220BDE8F0879DB1012D16D0022D06
:1047F00019D022463B464846FFF7E4FC4046FFF707
:104800004FFD0C490A6822F001020A60002131764E
:10481000E8E7E1B24846FFF7C5FCEFE7A1B248463A
:10482000FFF7E6FCEAE721464846FFF7F3FCE5E739
:1048300004000020103C0240074900200A68002ABA
:1048400009DA054A054B0C3A1360054B13600968F9
:10485000002900DA01207047103C0240230167451F
:10486000AB89EFCD2DE9F04F0022DFF838B10126FA
:104870004FF00F0906FA02F401EA0403A3427DD1C6
:1048800022F003075F44D7F8088895074FEA157CA4
:1048900009FA0CFA0AEA0805DFF80C81404502D152
:1048A0004FF0000832E0DFF80481404502D14FF0BC
:1048B00001082BE0DFF8F880404502D14FF00208F4
:1048C00024E0DFF8F080404502D14FF003081DE0FE
:1048D000DFF8E480404502D14FF0040816E0DFF82D
:1048E000DC80404502D14FF005080FE0DFF8D080B2
:1048F000404502D14FF0060808E0DFF8C880404587
:1049000002D14FF0070801E04FF0080808FA0CF850
:10491000A84522D12C4DD5F800C02CEA030CC5F8CF
:1049200000C005F1040CDCF800509D43CCF80050A9
:10493000254D0C35D5F800C02CEA030CC5F800C095
:104940002D1FD5F800C02CEA030CC5F800C0D7F81D
:10495000085825EA0A05C7F80858056857000323D0
:10496000BB409D430560D50800EB8505D5F820C008
:1049700057074FEAD76809FA08F700E00CE02CEA7D
:10498000070CC5F820C0C5689D43C5604568A543B0
:10499000456084689C438460521C102AFFF46AAF0F
:1049A000BDE8F08F003001400000024000040240EA
:1049B00000080240000C02400010024000140240B7
:1049C00000180240001C0240003C01402DE9F84F55
:1049D000DFF8BCA10022012503264FF00F090AF1E0
:1049E000040BAAF1040E00BF0B6805FA02F4234081
:1049F000A34270D10F7907F00307012F01D0022FD6
:104A000016D187684FEA420806FA08FC27EA0C0725
:104A1000D1F80CC00CFA08FC4CEA070CC0F808C02E
:104A20004768A7430C79C4F3001494403C434460A6
:104A30000C79E443A4070AD0C4684FEA420C06FA92
:104A40000CF7BC438F6807FA0CF72743C7600C7953
:104A500004F00304022C12D1D40800EB840CDCF81F
:104A600020405707FF0E09FA07F824EA0804D1F896
:104A7000108008FA07F848EA0408CCF82080046897
:104A80004FEA420C06FA0CF7BC430F7907F0030714
:104A900007FA0CF7274307604C6814F4403F70D0C6
:104AA0003C4C276847F480472760246822F00307BE
:104AB00004F480440094384C07EB040CDCF80848FC
:104AC00097074FEA177809FA08F7BC43334FB84203
:104AD00002D1002724E054E0314FB84201D1012730
:104AE0001EE0304FB84201D1022719E02E4FB842E4
:104AF00001D1032714E02D4FB84201D104270FE064
:104B00002B4FB84201D105270AE02A4FB84201D104
:104B1000062705E0284FB84201D1072700E0082703
:104B200007FA08F72743CCF80878DAF80040574628
:104B3000D1F804C09C435FEACC2C00D51C433C60F8
:104B4000DBF800405F46D1F804C09C435FEA8C2C40
:104B500000D51C433C60DEF800407746D1F804C025
:104B60009C435FEA8C3C00D51C433C60084F083FE7
:104B70003C68D1F804C09C435FEACC3C00D51C43A0
:104B80003C60521C102AFFF42FAFBDE8F88F0000E4
:104B9000083C01404438024000300140000002401F
:104BA0000004024000080240000C024000100240D5
:104BB0000014024000180240001C02400AB181614A
:104BC00070470904FBE70000014880687047000057
:104BD00024000020024881680278114481607047F7
:104BE000240000200B4810B5016841F400710160F9
:104BF000016841F480610160016841F480710160E5
:104C0000032000F07FF80F2000F006F800F024F8F1
:104C1000002010BD003C024070B50D4D04464FF41D
:104C20007A712878B1FBF0F00A490968B1FBF0F01D
:104C300000F097FE48B9102C07D200222146501EE2
:104C400000F040F800206C6070BD012070BD0000D5
:104C500024000020300000200A4808B5016841F413
:104C600080410160006800F4804000900548001F0A
:104C7000016841F080510160006800F080500090B0
:104C800008BD00004438024000280DDB00F01F0280
:104C9000012191404009800000F1E020C0F880111E
:104CA000BFF34F8FBFF36F8F7047002809DB00F011
:104CB0001F02012191404009800000F1E020C0F86E
:104CC00000117047F0B40E4B1B680C46C3F302236F
:104CD000C3F10705042D00D90425191D072901D2A8
:104CE000002300E0DB1E012606FA05F1491E2140E3
:104CF00099409E40761E16403143F0BC02F039B810
:104D00000CED00E0064900F0070208684FF6FF03CB
:104D1000184040EA0220034A104308607047000030
:104D20000CED00E00000FA05BFF34F8F0548016865
:104D3000054A01F4E06111430160BFF34F8F00BFEA
:104D4000FDE700000CED00E00400FA052DE9F04756
:104D50000E46050065D0DFF81481D8F80000F7B2E0
:104D600000F00700B04207D288F80070D8F80000C1
:104D700000F00700B04254D128683D4C810712D59D
:104D8000400703D5206840F4E050206028780007F1
:104D900003D5206840F4604020602068A96820F0B6
:104DA000F000084320602878C0072DD0304968689B
:104DB0000839012812D0022813D0032811D009681D
:104DC000890700292DDA216821F0030101432160C0
:104DD000FFF7FAFE814641F2883A0EE0096889033E
:104DE000EFE709688901ECE7FFF7EEFEA0EB0901A8
:104DF000514502D90320BDE8F0872068696800F0BA
:104E00000C00B0EB810FEFD1D8F80010404601F054
:104E10000701B14207D90770006800F00700B042EF
:104E200001D00120E7E72878400705D52068E96828
:104E300020F4E050084320602878000706D5206859
:104E4000296920F4604040EAC100206000F038F891
:104E50002168084AC1F30311515CC8400649086043
:104E600006480068FFF7D8FE0020C4E7003C024077
:104E70000838024046D400083000002028000020F6
:104E80000448054900680968044AC1F38221515C5D
:104E9000C8407047300000200838024056D400084F
:104EA0000448054900680968044AC1F34231515C6D
:104EB000C8407047300000200838024056D400082F
:104EC000154810B5006810F00C02144813D04110BA
:104ED000042A0FD0082A0ED10F4C241F2268236801
:104EE00002F03F025B0207D52068C0F38810A0FBE8
:104EF000010106E0084610BD2168C1F38811A1FB3D
:104F000000010023FBF749FA2168C1F30141491C64
:104F10004900B0FBF1F010BD083802400024F40055
:104F20002DE9F84F04006ED02078DFF84C93C007CD
:104F3000A9F104054AD009F104000168C1F3810117
:104F4000012908D00068C0F3810002280AD1D9F8ED
:104F50000000400206D52868800337D56068002825
:104F6000E1D033E06068B0F5803F10D0B0F5A02FFD
:104F7000286810D020F480302860286820F4802031
:104F800028606068A8B1FFF71FFE06460DE028689C
:104F900040F48030F4E740F480202860F7E700BF59
:104FA000FFF712FE801B642873D828688003F7D5AA
:104FB0000CE0FFF709FE064605E000BFFFF704FE20
:104FC000801B6428F0D828688003F7D42078DFF8A5
:104FD000AC8280074FF0000A3ED5A748001D01684B
:104FE00011F00C0F08D00068C0F3810002280BD12B
:104FF000D9F80000400207D42868800716D5E06879
:10500000012800D112E033E1E068B8B10120C8F80E
:105010000000FFF7D9FD064605E000BFFFF7D4FD0D
:10502000801B0228C0D828688007F7D52868216926
:1050300020F0F80040EAC10028600DE0C8F800A0A8
:10504000FFF7C2FD064604E0FFF7BEFD801B022805
:105050001FD828688007F7D42078000722D5864F0C
:1050600087486169703771B101210160FFF7ACFDBC
:10507000064604E0FFF7A8FD801B022809D838681F
:105080008007F7D50EE0C0F800A0FFF79DFD0646AB
:1050900005E082E0FFF798FD801B02287DD8386884
:1050A0008007F7D42078400768D5DFF8CCB1002717
:1050B0000BF13C0BDBF80000C0000BD4DBF8001058
:1050C00041F08051CBF80010DBF80000012700F020
:1050D000805000906B4E3068C00510D4306840F4AA
:1050E00080703060FFF770FD009005E0FFF76CFD09
:1050F0000099401A022850D83068C005F6D55E4E97
:10510000A0686C3601280FD00528306810D020F038
:1051100001003060306820F004003060A068B8B151
:10512000FFF752FD00900FE0306840F00100F4E717
:1051300040F004003060F7E7FFF746FD0099411AA0
:1051400041F28830814266D830688007F4D50EE09D
:10515000FFF73AFD009007E0FFF736FD0099411A8E
:1051600041F28830814256D830688007F4D42FB19C
:10517000DBF8001021F08051CBF80010A069C8B313
:105180003D49091D0968C1F3810102294AD002285D
:10519000504607D0C8F8600000E03CE0FFF714FD7F
:1051A00004463BE04746C8F86000FFF70DFD0646A1
:1051B00005E000BFFFF708FD801B02282BD82868F8
:1051C0008001F7D4D4E907010843A16A2E4A4908AF
:1051D00002EB0141626A41EA8211084394F82C1003
:1051E00040EA0161C9F8001001203866FFF7ECFCC5
:1051F000044606E03EE000BFFFF7E6FC001B022885
:1052000009D828688001F7D534E000BFFFF7DCFC3F
:10521000001B022802D90320BDE8F88F286880010E
:10522000F4D427E00128F7D0D9F80000E26900F4AF
:10523000800191421CD1226A00F03F01914217D1B6
:1052400047F6C071626A0140B1EB821F10D1A26AB9
:105250004FF0FF3300F4403103EB5202B1EB024F49
:1052600006D194F82C1000F07060B0EB016F01D003
:105270000120D1E70020CFE7043802400000474278
:10528000800E4742007000400000FFFF2DE9F0470C
:105290000446007900278A4601280ED00125257191
:1052A00060794FF00009012809D00420A06001278F
:1052B00084F804903846BDE8F0870220FBE74FF001
:1052C000020884F80580FFF77FFC064611E000BF66
:1052D000FFF77AFC801B02280BD920684068C04386
:1052E000C00706D06571C4F8088084F804900120D6
:1052F000E1E720684068C043C007E9D120688068C2
:10530000E060CAF800006571D2E770B5040003D010
:105310006079002510B105E0012070BD257120469F
:1053200000F00CF8022060712068016841F004016F
:10533000016001206071A560002070BD08B50068A3
:105340000649884208D10648016841F040010160E1
:10535000006800F04000009008BD00000008065002
:105360003438024070B5040009D0606A002540B1AD
:1053700025616561A56294F8510040B10CE00120FF
:1053800070BD6068B0F5827FF4D0E561F2E784F823
:105390005050204600F05AF8022084F8510020684E
:1053A000016821F040010160A088218900F4827029
:1053B00001F404410843A18901F400610843217C00
:1053C00001F002010843217D01F001010843218B16
:1053D00001F400710843217F01F03801084394F87B
:1053E000201001F080010843218D01F40051084391
:1053F00021680860A069042101EA104094F8241093
:1054000001F010010843216848602068C16921F457
:105410000061C1616565012084F85100002070BD04
:1054200000680749884209D10648016821F4004113
:1054300001604FF4E0510448FFF714BA70470000D0
:10544000003C0040403802400008024010B586B0E1
:10545000044614216846FBF70CFC14492068884276
:1054600021D113480021026842F400420260006822
:1054700000F4004005900E481038026842F0040223
:105480000260006800F0040005904FF4E0500090C6
:105490000220CDE901010320039006200490694613
:1054A0000448FFF793FA06B010BD0000003C00402E
:1054B00040380240000802402DE9F84F044690F8B9
:1054C00051001D4616460F46012838D1002F77D0CF
:1054D000002E75D060684FF00408B0F5827F01D1CE
:1054E000A06810B3FFF770FB824694F850000128C3
:1054F00025D04FF0010984F8509084F851804FF086
:105500000008C4F85480A763A687E687C4F83080F3
:10551000A4F83480A4F83680C4F84080C4F84480ED
:10552000A068B0F5004F0CD015E084F851800093CE
:1055300013460A46204600F01CF9BDE8F88F022009
:10554000FBE72068016821F04001016020680168E4
:1055500021F48041016020680168490603D4016894
:1055600041F040010160E068C0B134E0206881682A
:10557000C90709D0007BA16B0870A06B401CA06319
:10558000E08F401EE08709E0FFF71EFBA0EB0A005A
:10559000A84202D3681C01D032E085B3E08F002816
:1055A000E4D11BE020688168C9070AD0C068A16BFC
:1055B0000880A06B801CA063E08F401EE0870AE09B
:1055C0001BE0FFF701FBA0EB0A00A84202D3681C16
:1055D00001D015E09DB1E08F0028E3D15246294665
:1055E000204600F02BFE08B12020606584F8519021
:1055F00084F85080606D00289FD001209DE7FFE770
:1056000084F8519084F85080032096E72DE9F84FF4
:10561000984616468A460446FFF7D6FA814694F81D
:10562000510001281ED1BAF1000F73D0002E71D0A5
:1056300094F85000012815D0012784F850700320F9
:1056400084F8510000256565C4F830A0A686E6867A
:10565000A563A587E58765642564A068B0F5004F5C
:1056600003D00CE00220BDE8F88F2068016821F02B
:10567000400101602068016841F4804101602068B8
:105680000168490603D4016841F040010160E06807
:10569000B0F5006F606803D048B3012E27D047E013
:1056A00008B1012E1FD1206B21680088C86006E078
:1056B00020688168890709D5216B0988C160206B42
:1056C000801C2063E08E401EE0860CE0FFF77CFA31
:1056D000A0EB0901414503D3B8F1FF3F03D035E00A
:1056E000B8F1000F32D0E08E0028E1D123E0206B2A
:1056F00021680078087306E02068816889070AD568
:10570000216B09780173206B401C2063E08E401EE2
:10571000E0860DE02BE0FFF757FAA0EB09014145C9
:1057200003D3B8F1FF3F03D010E0B8F1000F0DD064
:10573000E08E0028E0D14A464146204600F0ACFD0C
:1057400008B120206065A06830B109E084F851708C
:1057500084F85050032086E72068C1688068009074
:1057600084F8517004F8505F60680028F3D001207D
:1057700079E72DE9FF4F81B01D46934604464FF06F
:1057800001090E9EFFF720FA074694F85100616860
:10579000012806D0B1F5827F3CD1A168C9BB04289D
:1057A00038D10298002871D0BBF1000FFBD0002D3A
:1057B000F9D094F8500001282CD04FF0010A84F859
:1057C00050A094F85100042802D0052084F851001C
:1057D0004FF00008C4F85480C4F838B0E587A587B6
:1057E00002992163E586A586C4F84080C4F8448008
:1057F00020680168490603D4016841F04001016056
:10580000E068B0F5006F606808D0F0B3012D49D0B2
:1058100081E0FFE7022005B0BDE8F08F08B1012D5F
:1058200039D1206B21680088C860206B801C206300
:10583000E08E401EE0862EE02068816889070FD543
:10584000E18E69B1B9F1010F0AD1216B0988C160FC
:10585000206B801C2063E08E401EE0864FF0000924
:1058600020688168C9070CD0E18F51B1C068A16B75
:105870000880A06B801CA063E08F401EE0874FF083
:105880000109FFF7A1F9C01B01E00BE067E0B0429E
:1058900001D3701C50D1E08E0028CDD1E08F0028BC
:1058A000CAD13EE0206B216800780873206B401C51
:1058B0002063E08E401EE0862DE020688168890725
:1058C0000FD5E18E69B1B9F1010F0AD1216B0978C9
:1058D0000173206B401C2063E08E401EE0864FF079
:1058E000000920688168C9070CD0E18F51B1C068F8
:1058F000A16B0870A06B401CA063E08F401EE08786
:105900004FF00109FFF760F9C01BB04202D3701CD1
:1059100001D011E086B1E08E0028CED1E08F0028C2
:10592000CBD13A463146204600F0B6FC50B120209B
:10593000606584F8508012E084F851A084F85080AB
:10594000032068E7A06818B92068C16880680090E3
:1059500084F851A084F85080606D0028F1D00120B7
:1059600059E710B5401EB0F1807F01D3012010BD72
:105970004FF0E02460610F21601701F0FAF9002078
:10598000A06107202061002010BD38B5044690F8C2
:105990004200202801D0022038BD51B14AB1012077
:1059A000206300206063204600F0FAFE216B01298D
:1059B00001D0012038BD21680A684968009121683A
:1059C0000C3151E8002F42F0100241E80023002B77
:1059D000F5D138BD0D4A10B5904215D10C4840F2B2
:1059E00006440068C28AC2F58052A24201DA00224F
:1059F000C2820A46074900F0EFFB2246BDE810408C
:105A000004490248FFF7C1BF10BD0000D8040020C0
:105A100044000020942D002010B504460068406921
:105A200094F84110C0F3C010212911D180B1206831
:105A3000143050E8001F21F0800140E80012002AD5
:105A4000F5D1A06B08B1FEF753FC204600F0B3FD82
:105A50002068406994F84210C0F38010222911D1C7
:105A600080B12068143050E8001F21F0400140E868
:105A70000012002AF5D1E06B08B1FEF739FC204690
:105A800000F072FD002010BD70470000F8B50168FD
:105A900004460868CA684B6910F00F0F4FF0000504
:105AA00059D003F0010602F49077374365D0C1075F
:105AB00005D0D10503D5616C41F001016164410756
:105AC00005D5D90703D0616C41F0020161648107FB
:105AD00005D5D90703D0616C41F004016164010769
